S02100004D6F746F725F706F736974696F6E436F6E74726F6C5F3132382E7372656343
S113000045C0000061C000005FC000005DC000008A
S11300105BC0000059C0000057C0000055C000007C
S113002053C0000051C000004FC000004DC000008C
S11300304BC0000049C0000047C0000045C000009C
S113004043C0000041C0000036C300003DC00000B2
S11300503BC0000075C3000037C0000035C000007D
S113006033C0000031C000002FC000002DC00000CC
S11300702BC0000029C0000027C0000025C00000DC
S113008023C0000021C000001FC0000011241FBEB7
S1130090CFEFD0E1DEBFCDBF11E0A0E0B1E0EEE0F4
S11300A0F3E100E00BBF02C007900D92AA30B10744
S11300B0D9F721E0AAE0B1E001C01D92AE3DB2073C
S11300C0E1F7EBD00C9485099BCF86B1866086B9A5
S11300D03E9A339A379A369A0895369A089518169E
S11300E019065CF4AA9A8932910514F088E290E02A
S11300F0909387008093860016C0AA989C01992348
S113010024F422273327281B390B332334F02932D4
S113011031052CF028E230E002C020E030E03093DA
S1130120870020938600161617065CF4AB9A693292
S1130130710514F068E270E07093850060938400A8
S113014016C0AB98CB01992324F488279927861BE2
S1130150970B992334F0893291052CF088E290E0D2
S113016002C080E090E09093850080938400141690
S113017015065CF4AC9A4932510514F048E250E09B
S113018050938300409382000895AC98CA01992348
S113019024F488279927841B950B992334F08932FA
S11301A091052CF088E290E002C080E090E090930A
S11301B08300809382000895139A149A159A84B345
S11301C08C6184BB089581110CC01092900080E171
S11301D089B988E98AB9E5E9F0E08081866080839D
S11301E008951092980080E18093990088E18093AB
S11301F09A00EDE9F0E080818660808308956111C2
S113020004C05D9BFECF8CB90895EBE9F0E09081CA
S113021095FFFDCF80939C0008950F931F93CF9378
S1130220DF93CDB7DEB72A970FB6F894DEBF0FBEC3
S1130230CDBF062F4AE0BE016F5F7F4F0E944A097F
S11302408981882369F010E0602FD9DF1F5FE1E026
S1130250F0E0EC0FFD1FE10FF11D80818111F4CF5F
S11302602A960FB6F894DEBF0FBECDBFDF91CF91B3
S11302701F910F9108951F93CF93DF93EC01888111
S1130280882339F0162F2196612FB9DF89918111C6
S1130290FBCFDF91CF911F9108957BD581D58CDF62
S11302A014DF80E090DF78940F2EF6EBCF2EF3EF7F
S11302B0DF2EFDEFEF2EFCE3FF2EF02D00E010E02B
S11302C0980140E050E060EA70E488E591E027D4CA
S11302D0CCE0D1E0488159816A817B8188E591E055
S11302E046D400E010E0980140E050E060EA70E499
S11302F08EE791E014D44C815D816E817F818EE71D
S113030091E035D400E010E0980140E050E060EA6C
S113031070E484EA91E003D4488559856A857B8535
S113032084EA91E024D42FEF83ED90E321508040C0
S11303309040E1F700C00000E4E2F1E080819181A7
S1130340A281B38188839983AA83BB8384819581A5
S1130350A681B7818C839D83AE83BF83808591857D
S1130360A285B38588879987AA87BB876F017E0199
S1130370CEE1D1E08CB59DB580319742D8F36CB510
S11303807DB580E090E02ED620E034E244E759E4E5
S113039090D56093540170935501809356019093C6
S11303A057011DBC1CBC8090540190905501A09035
S11303B05601B0905701F601608171818281938169
S11303C0E0D5072E000C880B990B0ED6F70120817F
S11303D031814281538104D5AB01BC019501840173
S11303E088E591E0D2D3CDD5798368838090540198
S11303F090905501A0905601B0905701F601648188
S1130400758186819781BDD5072E000C880B990BC9
S1130410EBD5F7012481358146815781E1D4AB01C5
S1130420BC01950184018EE791E0AFD3AAD57B830B
S11304306A838090540190905501A0905601B09029
S11304405701F60160857185828593859AD5072EBB
S1130450000C880B990BC8D5F7012085318542859E
S11304605385BED4AB01BC019501840184EA91E0BB
S11304708CD387D57D836C832A813B81AB01B90101
S1130480888199812CDE40E050E0BA0188E591E052
S11304906ED340E050E0BA018EE791E068D340E0CB
S11304A050E0BA0184EA91E062D364CF4F925F9244
S11304B06F927F928F929F92AF92BF92CF92DF9270
S11304C0EF92FF920F931F93CF93DF93CDB7DEB7D5
S11304D02F970FB6F894DEBF0FBECDBFFC018B0182
S11304E085E09E012F5F3F4FD901982F1D929A9569
S11304F0E9F72B5F3F4FD901982F1D929A95E9F7A1
S11305002B5F3F4FD9011D928A95E9F7908199237A
S113051049F1319620E080E09C32F9F0213061F01D
S113052018F0223089F017C0A1E0B0E0AC0FBD1F75
S1130530A80FB11D9C930FC0A6E0B0E0AC0FBD1F87
S1130540A80FB11D9C9307C0ABE0B0E0AC0FBD1F7A
S1130550A80FB11D9C938F5F02C02F5F80E0919123
S11305609111DACFCE01019678D6BC01990F880B90
S1130570990B3AD54B015C01CE0106966ED6BC01AF
S1130580990F880B990B30D56B017C01CE010B962A
S113059064D6BC01990F880B990B26D52B013C011D
S11305A020E030E0A901C501B4017FD4882354F0D0
S11305B020E030E044EB52E4C501B401C5D518167F
S11305C02CF00CC0812C912C540108C00F2E812CCE
S11305D0912CF4EBAF2EF2E4BF2EF02DF8018082C3
S11305E09182A282B38220E030E0A901C701B60162
S11305F05CD4882354F020E030E044EB52E4C7019B
S1130600B601A2D518162CF00CC0C12CD12C760141
S113061008C00F2EC12CD12CF4EBEF2EF2E4FF2EE8
S1130620F02DD8011496CD92DD92ED92FC9217979D
S113063020E030E0A901C301B20137D4882354F08B
S113064020E030E044EB52E4C301B2017DD518163A
S11306506CF404C0412C512C320108C00F2E412CE3
S1130660512CF4EB6F2EF2E47F2EF02DF80140862E
S11306705186628673862F960FB6F894DEBF0FBE3E
S1130680CDBFDF91CF911F910F91FF90EF90DF903D
S1130690CF90BF90AF909F908F907F906F905F901E
S11306A04F900895FC018081882321F0119280816C
S11306B08111FCCF08951F920F920FB60F9211244F
S11306C00BB60F922F933F934F935F936F937F9348
S11306D08F939F93AF93BF93CF93EF93FF93CFB732
S11306E0F8949CB190930B019A3059F46CE071E04A
S11306F08AEC91E0DBDE10920A018AEC91E0D2DF11
S11307000AC080910A01E82FF0E0E653FE4F90837F
S11307108F5F80930A01CFBFFF91EF91CF91BF917B
S1130720AF919F918F917F916F915F914F913F9185
S11307302F910F900BBE0F900FBE0F901F90189526
S11307401F920F920FB60F9211240BB60F922F9295
S11307503F926F927F928F929F92AF92BF92CF926D
S1130760DF92EF92FF920F931F932F933F934F9338
S11307705F936F937F938F939F93AF93BF93EF9305
S1130780FF93CF93DF9300D000D0CDB7DEB784B111
S113079025B190E0922B27B1213461F018F4203474
S11307A031F055C0223401F12334C1F150C081E449
S11307B087B94DC0E0E3F1E04081518162817381EA
S11307C08A019B01080F191F211D311D008311830C
S11307D022833383E8E1F1E0808191810196918362
S11307E0808382E487B933C0E0E3F1E0448155813A
S11307F0668177818A019B01080F191F211D311D14
S11308000483158326833783E8E1F1E082819381B1
S113081001969383828383E487B919C0E0E3F1E00E
S113082040855185628573858A019B01080F191FD4
S1130830211D311D0087118722873387E8E1F1E00C
S11308408481958101969583848381E487B920917D
S11308501801309119012436310508F438C140E0FB
S113086050E0E0E3F1E06081718182819381D3D42F
S113087069017A01E0E3F1E0208331834283538309
S11308800CE411E024E333E343EB5EE3F801648119
S11308907581868197815CD44B015C01C701B601E7
S11308A0A1D326E636E646E25FE352D49B01AC01CF
S11308B0C501B40196D2F801608371838283938366
S11308C0648375838683978320E030E044EB53E4AC
S11308D03FD420E030E040E85AE33AD46B017C0195
S11308E004E211E0F80160837183828393830F2E05
S11308F0F8E12F2EF1E03F2EF02DF101228133811A
S113090040E050E0609134017091350180913601EE
S11309109091370180D449015A01209334013093D6
S1130920350140933601509337010F2EF4E46F2EB6
S1130930F1E07F2EF02D24E333E343EB5EE3F30198
S1130940648175818681978103D469837A838B83DB
S11309509C83C501B40146D326E636E646E25FE34E
S1130960F7D39B01AC0169817A818B819C8139D257
S1130970F3016083718382839383648375838683A5
S1130980978320E030E044EB53E4E2D320E030E00E
S113099040E85AE3DDD3F801648375838683978343
S11309A0F1012481358140E050E06091380170917B
S11309B0390180913A0190913B012DD449015A01AA
S11309C0209338013093390140933A0150933B010D
S11309D00F2EFCE36F2EF1E07F2EF02D24E333E3A2
S11309E043EB5EE3F3016481758186819781B0D323
S11309F069837A838B839C83C501B401F3D226E691
S1130A0036E646E25FE3A4D39B01AC0169817A81B7
S1130A108B819C81E6D1F30160837183828393830C
S1130A20648375838683978320E030E044EB53E44A
S1130A308FD320E030E040E85AE38AD3F80160879E
S1130A40718782879387C701B6019BD2DC01CB01F2
S1130A5060E0E3DB60E080E091E00DDCF8016481BC
S1130A607581868197818DD2DC01CB0160E0D5DB75
S1130A7060E080E091E0FFDBF801608571858285AC
S1130A8093857FD2DC01CB0160E0C7DB60E084E0CA
S1130A9091E0F1DBE0E3F1E0108211821282138233
S1130AA0F1011182108210923401109235011092DA
S1130AB0360110923701138212821092380110927B
S1130AC0390110923A0110923B011582148205DB20
S1130AD00F900F900F900F90DF91CF91FF91EF91B6
S1130AE0BF91AF919F918F917F916F915F914F9142
S1130AF03F912F911F910F91FF90EF90DF90CF9036
S1130B00BF90AF909F908F907F906F903F902F9069
S1130B100F900BBE0F900FBE0F901F901895CF92A1
S1130B20DF92EF92FF920F931F93FC014083518356
S1130B30628373830483158326833783C086D186B7
S1130B40E286F3861486158616861786148A158A15
S1130B50168A178A108A118A128A138A118E108EA5
S1130B601F910F91FF90EF90DF90CF900895FC01BB
S1130B704487558766877787148A158A168A178A61
S1130B80108A118A128A138A08952F923F924F92E3
S1130B905F926F927F928F929F92AF92BF92CF9209
S1130BA0DF92EF92FF920F931F93CF93DF9300D0C6
S1130BB000D000D0CDB7DEB79E838D8349835A839E
S1130BC06B837C83480159019A01AB01FC01648564
S1130BD075858685978504D16B017C01A5019401F7
S1130BE0B7D2ED81FE812089318942895389F9D0B8
S1130BF0162F072F382E292EED81FE812081318179
S1130C0042815381C701B601A3D22B013C01ED817E
S1130C10FE812481358146815781612F702F832D78
S1130C20922D96D29B01AC01C301B201DAD02B0103
S1130C303C01ED81FE812489358946895789698182
S1130C407A818B819C81CCD0A501940132D1ED8134
S1130C50FE8120853185428553857AD29B01AC0182
S1130C60C301B201BED0A62E972E882E9983ED81A2
S1130C70FE81B08CB0FE38C020E030E0A901612FC5
S1130C80702F832D922D11D18823A4F4ED81FE8140
S1130C90428C538C648C758C77FA709477F87094CA
S1130CA0A3019201612F702F832D922DFED08823F2
S1130CB0BCF01AC0ED81FE81728C638C548C458C1F
S1130CC0272D362D452D542D612F702F832D922DD8
S1130CD0ECD088234CF0172D062D352C242C04C081
S1130CE0142D052D362C272C812F902FA32DB22DBA
S1130CF0ED81FE81808B918BA28BB38BB2FE0FC0F2
S1130D0012A103A174A065A0212F302F472D562DC9
S1130D106A2D792D882D9981C8D08823ECF0B3FEF3
S1130D2011C0ED81FE81168D078D70A061A0212F69
S1130D30302F472D562D6A2D792D882D998104D277
S1130D40181654F0ED81FE81C48AD58AE68AF78AA2
S1130D501A2D092D782C6980612F702F872D962DDF
S1130D6026960FB6F894DEBF0FBECDBFDF91CF91AC
S1130D701F910F91FF90EF90DF90CF90BF90AF90B5
S1130D809F908F907F906F905F904F903F902F90A7
S1130D9008951FBC8EB582608EBD10927A000895AE
S1130DA0EBE8F0E080818A6A8083EAE8F0E0808101
S1130DB0896180838AEF90E0909381008093800022
S1130DC082B1886182B910928300109282001092DD
S1130DD08500109284001092870010928600089576
S1130DE05058BB27AA270ED075C166D130F06BD1FD
S1130DF020F031F49F3F11F41EF45BC10EF4E09532
S1130E00E7FB51C1E92F77D180F3BA176207730763
S1130E108407950718F071F49EF58FC10EF4E095E0
S1130E200B2EBA2FA02D0B01B90190010C01CA01A0
S1130E30A0011124FF27591B99F0593F50F4503E4B
S1130E4068F11A16F040A22F232F342F4427585F3D
S1130E50F3CF469537952795A795F0405395C9F755
S1130E607EF41F16BA0B620B730B840BBAF091500D
S1130E70A1F0FF0FBB1F661F771F881FC2F70EC0AC
S1130E80BA0F621F731F841F48F48795779567957F
S1130E90B795F7959E3F08F0B3CF9395880F08F068
S1130EA09927EE0F979587950895D9D008F481E096
S1130EB008950CD00FC107D140F0FED030F021F4DA
S1130EC05F3F19F0F0C0511139C1F3C014D198F348
S1130ED09923C9F35523B1F3951B550BBB27AA27B7
S1130EE062177307840738F09F5F5F4F220F331F29
S1130EF0441FAA1FA9F333D00E2E3AF0E0E830D0F5
S1130F0091505040E695001CCAF729D0FE2F27D0F7
S1130F10660F771F881FBB1F261737074807AB07C5
S1130F20B0E809F0BB0B802DBF01FF2793585F4F3A
S1130F302AF09E3F510568F0B6C000C15F3FECF354
S1130F40983EDCF3869577956795B795F7959F5FFF
S1130F50C9F7880F911D9695879597F90895E1E053
S1130F60660F771F881FBB1F621773078407BA07B2
S1130F7020F0621B730B840BBA0BEE1F88F7E0950D
S1130F80089504D06894B111D9C00895BCD088F0F4
S1130F909F5790F0B92F9927B751A0F0D1F0660F61
S1130FA0771F881F991F1AF0BA95C9F712C0B1307C
S1130FB081F0C3D0B1E00895C0C0672F782F88278F
S1130FC0B85F39F0B93FCCF3869577956795B395BB
S1130FD0D9F73EF490958095709561957F4F8F4F2A
S1130FE09F4F0895E89409C097FB3EF4909580952F
S1130FF0709561957F4F8F4F9F4F9923A9F0F92FDB
S113100096E9BB279395F695879577956795B79558
S1131010F111F8CFFAF4BB0F11F460FF1BC06F5F3E
S11310207F4F8F4F9F4F16C0882311F096E911C050
S1131030772321F09EE8872F762F05C0662371F071
S113104096E8862F70E060E02AF09A95660F771F85
S1131050881FDAF7880F9695879597F90895990F61
S11310600008550FAA0BE0E8FEEF16161706E8076E
S1131070F907C0F012161306E407F50798F0621B8F
S1131080730B840B950B39F40A2661F0232B242B64
S1131090252B21F408950A2609F4A140A6958FEF83
S11310A0811D811D089597F99F6780E870E060E0D5
S11310B008959FEF80EC089500240A9416161706ED
S11310C018060906089500240A9412161306140635
S11310D005060895092E0394000C11F4882352F098
S11310E0BB0F40F4BF2B11F460FF04C06F5F7F4F50
S11310F08F4F9F4F089557FD9058440F551F59F037
S11311005F3F71F04795880F97FB991F61F09F3FF0
S113111079F087950895121613061406551FF2CF19
S11311204695F1DF08C0161617061806991FF1CF69
S113113086957105610508940895E894BB27662790
S11311407727CB0197F908958ADF08F48FEF089584
S11311500BD0C0CFB1DF28F0B6DF18F0952309F02B
S1131160A2CFA7CF1124EACFC6DFA0F3959FD1F376
S1131170950F50E0551F629FF001729FBB27F00D41
S1131180B11D639FAA27F00DB11DAA1F649F662796
S1131190B00DA11D661F829F2227B00DA11D621FE5
S11311A0739FB00DA11D621F839FA00D611D221F9F
S11311B0749F3327A00D611D231F849F600D211D83
S11311C0822F762F6A2F11249F5750408AF0E1F026
S11311D088234AF0EE0FFF1FBB1F661F771F881F6F
S11311E091505040A9F79E3F510570F05CCFA6CFB7
S11311F05F3FECF3983EDCF3869577956795B7955A
S1131200F795E7959F5FC1F7FE2B880F911D969583
S1131210879597F90895A1E21A2EAA1BBB1BFD011D
S11312200DC0AA1FBB1FEE1FFF1FA217B307E407C1
S1131230F50720F0A21BB30BE40BF50B661F771F19
S1131240881F991F1A9469F76095709580959095F9
S11312509B01AC01BD01CF010895FC0188279927AA
S1131260E89421912032E9F3293010F02E30C8F3AC
S11312702B3239F02D3231F4689403C015D0820F2B
S1131280911D219120532A30C8F31EF49095819525
S11312909F4F0895BB274A3031F4992322F4BDE2CD
S11312A0909581959F4F09C07AE0979F902D879FD5
S11312B0802D910D11240895BB27FB015527AA27E2
S11312C0880F991FAA1FA41710F0A41B83955051CF
S11312D0B9F7A05DAA3308F0A95DA193009779F747
S11312E0B111B1931192CB0100C0DC01FC01672F55
S11312F071917723E1F7329704C07C916D937083E9
S11113006291AE17BF07C8F30895F894FFCFAB
S10D130E202C2000200D0A2000000E
S9030000FC
